{
  "abi": [
    {
      "inputs": [],
      "stateMutability": "nonpayable",
      "type": "constructor"
    },
    {
      "inputs": [],
      "name": "NewOwnerIsZeroAddress",
      "type": "error"
    },
    {
      "inputs": [],
      "name": "Unauthorized",
      "type": "error"
    },
    {
      "anonymous": false,
      "inputs": [],
      "name": "OwnershipHandoverCanceled",
      "type": "event"
    },
    {
      "anonymous": false,
      "inputs": [
        {
          "indexed": true,
          "internalType": "address",
          "name": "newOwner",
          "type": "address"
        }
      ],
      "name": "OwnershipHandoverProposed",
      "type": "event"
    },
    {
      "anonymous": false,
      "inputs": [
        {
          "indexed": true,
          "internalType": "address",
          "name": "oldOwner",
          "type": "address"
        },
        {
          "indexed": true,
          "internalType": "address",
          "name": "newOwner",
          "type": "address"
        }
      ],
      "name": "OwnershipTransferred",
      "type": "event"
    },
    {
      "anonymous": false,
      "inputs": [
        {
          "indexed": true,
          "internalType": "address",
          "name": "user",
          "type": "address"
        },
        {
          "indexed": true,
          "internalType": "uint256",
          "name": "roles",
          "type": "uint256"
        }
      ],
      "name": "RolesUpdated",
      "type": "event"
    },
    {
      "inputs": [],
      "name": "cancelOwnershipHandover",
      "outputs": [],
      "stateMutability": "nonpayable",
      "type": "function"
    },
    {
      "inputs": [],
      "name": "flag",
      "outputs": [
        {
          "internalType": "bool",
          "name": "",
          "type": "bool"
        }
      ],
      "stateMutability": "view",
      "type": "function"
    },
    {
      "inputs": [
        {
          "internalType": "address",
          "name": "user",
          "type": "address"
        },
        {
          "internalType": "uint256",
          "name": "roles",
          "type": "uint256"
        }
      ],
      "name": "grantRoles",
      "outputs": [],
      "stateMutability": "nonpayable",
      "type": "function"
    },
    {
      "inputs": [
        {
          "internalType": "address",
          "name": "user",
          "type": "address"
        },
        {
          "internalType": "uint256",
          "name": "brutalizer",
          "type": "uint256"
        },
        {
          "internalType": "uint256",
          "name": "roles",
          "type": "uint256"
        }
      ],
      "name": "grantRoles",
      "outputs": [],
      "stateMutability": "nonpayable",
      "type": "function"
    },
    {
      "inputs": [
        {
          "internalType": "address",
          "name": "user",
          "type": "address"
        },
        {
          "internalType": "uint256",
          "name": "roles",
          "type": "uint256"
        }
      ],
      "name": "hasAllRoles",
      "outputs": [
        {
          "internalType": "bool",
          "name": "result",
          "type": "bool"
        }
      ],
      "stateMutability": "view",
      "type": "function"
    },
    {
      "inputs": [
        {
          "internalType": "address",
          "name": "user",
          "type": "address"
        },
        {
          "internalType": "uint256",
          "name": "roles",
          "type": "uint256"
        }
      ],
      "name": "hasAnyRole",
      "outputs": [
        {
          "internalType": "bool",
          "name": "result",
          "type": "bool"
        }
      ],
      "stateMutability": "view",
      "type": "function"
    },
    {
      "inputs": [
        {
          "internalType": "address",
          "name": "user",
          "type": "address"
        },
        {
          "internalType": "uint256",
          "name": "roles",
          "type": "uint256"
        }
      ],
      "name": "hasAnyRoleWithCheck",
      "outputs": [
        {
          "internalType": "bool",
          "name": "result",
          "type": "bool"
        }
      ],
      "stateMutability": "view",
      "type": "function"
    },
    {
      "inputs": [
        {
          "internalType": "address",
          "name": "newOwner",
          "type": "address"
        },
        {
          "internalType": "uint256",
          "name": "brutalizer",
          "type": "uint256"
        }
      ],
      "name": "initializeOwnerDirect",
      "outputs": [],
      "stateMutability": "nonpayable",
      "type": "function"
    },
    {
      "inputs": [
        {
          "internalType": "uint256",
          "name": "roles",
          "type": "uint256"
        }
      ],
      "name": "ordinalsFromRoles",
      "outputs": [
        {
          "internalType": "uint8[]",
          "name": "ordinals",
          "type": "uint8[]"
        }
      ],
      "stateMutability": "pure",
      "type": "function"
    },
    {
      "inputs": [],
      "name": "owner",
      "outputs": [
        {
          "internalType": "address",
          "name": "result",
          "type": "address"
        }
      ],
      "stateMutability": "view",
      "type": "function"
    },
    {
      "inputs": [],
      "name": "ownershipHandoverReceiver",
      "outputs": [
        {
          "internalType": "address",
          "name": "result",
          "type": "address"
        }
      ],
      "stateMutability": "view",
      "type": "function"
    },
    {
      "inputs": [
        {
          "internalType": "address",
          "name": "newOwner",
          "type": "address"
        }
      ],
      "name": "proposeOwnershipHandover",
      "outputs": [],
      "stateMutability": "nonpayable",
      "type": "function"
    },
    {
      "inputs": [],
      "name": "receiveOwnershipHandover",
      "outputs": [],
      "stateMutability": "nonpayable",
      "type": "function"
    },
    {
      "inputs": [],
      "name": "renounceOwnership",
      "outputs": [],
      "stateMutability": "nonpayable",
      "type": "function"
    },
    {
      "inputs": [
        {
          "internalType": "uint256",
          "name": "roles",
          "type": "uint256"
        }
      ],
      "name": "renounceRoles",
      "outputs": [],
      "stateMutability": "nonpayable",
      "type": "function"
    },
    {
      "inputs": [
        {
          "internalType": "address",
          "name": "user",
          "type": "address"
        },
        {
          "internalType": "uint256",
          "name": "roles",
          "type": "uint256"
        }
      ],
      "name": "revokeRoles",
      "outputs": [],
      "stateMutability": "nonpayable",
      "type": "function"
    },
    {
      "inputs": [
        {
          "internalType": "address",
          "name": "user",
          "type": "address"
        },
        {
          "internalType": "uint256",
          "name": "brutalizer",
          "type": "uint256"
        },
        {
          "internalType": "uint256",
          "name": "roles",
          "type": "uint256"
        }
      ],
      "name": "revokeRoles",
      "outputs": [],
      "stateMutability": "nonpayable",
      "type": "function"
    },
    {
      "inputs": [
        {
          "internalType": "uint8[]",
          "name": "ordinals",
          "type": "uint8[]"
        }
      ],
      "name": "rolesFromOrdinals",
      "outputs": [
        {
          "internalType": "uint256",
          "name": "roles",
          "type": "uint256"
        }
      ],
      "stateMutability": "pure",
      "type": "function"
    },
    {
      "inputs": [
        {
          "internalType": "address",
          "name": "user",
          "type": "address"
        }
      ],
      "name": "rolesOf",
      "outputs": [
        {
          "internalType": "uint256",
          "name": "roles",
          "type": "uint256"
        }
      ],
      "stateMutability": "view",
      "type": "function"
    },
    {
      "inputs": [
        {
          "internalType": "address",
          "name": "newOwner",
          "type": "address"
        },
        {
          "internalType": "uint256",
          "name": "brutalizer",
          "type": "uint256"
        }
      ],
      "name": "setOwnerDirect",
      "outputs": [],
      "stateMutability": "nonpayable",
      "type": "function"
    },
    {
      "inputs": [
        {
          "internalType": "address",
          "name": "newOwner",
          "type": "address"
        }
      ],
      "name": "transferOwnership",
      "outputs": [],
      "stateMutability": "nonpayable",
      "type": "function"
    },
    {
      "inputs": [],
      "name": "updateFlagWithOnlyOwner",
      "outputs": [],
      "stateMutability": "nonpayable",
      "type": "function"
    },
    {
      "inputs": [
        {
          "internalType": "uint256",
          "name": "roles",
          "type": "uint256"
        }
      ],
      "name": "updateFlagWithOnlyOwnerOrRoles",
      "outputs": [],
      "stateMutability": "nonpayable",
      "type": "function"
    },
    {
      "inputs": [
        {
          "internalType": "uint256",
          "name": "roles",
          "type": "uint256"
        }
      ],
      "name": "updateFlagWithOnlyRoles",
      "outputs": [],
      "stateMutability": "nonpayable",
      "type": "function"
    },
    {
      "inputs": [
        {
          "internalType": "uint256",
          "name": "roles",
          "type": "uint256"
        }
      ],
      "name": "updateFlagWithOnlyRolesOrOwner",
      "outputs": [],
      "stateMutability": "nonpayable",
      "type": "function"
    }
  ],
  "bytecode": {
    "object": "0x608060405234801561001057600080fd5b5061001a3361001f565b61005b565b6001600160a01b0316638b78c6d8198190558060007f8be0079c531659141344cd1fd0a4f28419497f9722a3daafe3b4186f6b6457e08180a350565b610af08061006a6000396000f3fe608060405234801561001057600080fd5b50600436106101a35760003560e01c80636610ec24116100ee578063a14dc6bf11610097578063dbdde68911610071578063dbdde6891461037c578063e72a48df1461038f578063eb2c793e146103a2578063f2fde38b146103b557600080fd5b8063a14dc6bf14610343578063b082c1b214610356578063b5dc55cc1461036957600080fd5b806374102217116100c85780637410221714610317578063890eba681461032a5780638da5cb5b1461033757600080fd5b80636610ec24146102dc578063715018a6146102ef5780637359e41f146102f757600080fd5b80632b481e1111610150578063514e62fc1161012a578063514e62fc1461028a57806351b3cf5e146102b457806354d1f13d146102d457600080fd5b80632b481e111461024b5780632de94807146102535780634a4ee7b11461027757600080fd5b8063183a4f6e11610181578063183a4f6e146101eb5780631c10893f146101fe5780631cd64df41461021157600080fd5b80630db7b832146101a8578063122a3c11146101b257806313a661ed146101c5575b600080fd5b6101b06103c8565b005b6101b06101c03660046108d6565b6103f2565b6101d86101d3366004610940565b610407565b6040519081526020015b60405180910390f35b6101b06101f9366004610a05565b61043a565b6101b061020c3660046108d6565b610447565b61023b61021f3660046108d6565b60609190911b638b78c6d8176000908152602090205481161490565b60405190151581526020016101e2565b6101b061046c565b6101d8610261366004610a1e565b60601b638b78c6d8176000908152602090205490565b6101b06102853660046108d6565b6104c2565b61023b6102983660046108d6565b60609190911b638b78c6d8176000908152602090205416151590565b638b78c6d719545b6040516001600160a01b0390911681526020016101e2565b6101b06104e7565b61023b6102ea3660046108d6565b610533565b6101b0610560565b61030a610305366004610a05565b6105ae565b6040516101e29190610a40565b6101b06103253660046108d6565b6105f6565b60005461023b9060ff1681565b638b78c6d819546102bc565b6101b0610351366004610a05565b610607565b6101b0610364366004610a87565b610640565b6101b0610377366004610a05565b610657565b6101b061038a366004610a87565b61068c565b6101b061039d366004610a1e565b61069e565b6101b06103b0366004610a05565b610707565b6101b06103c3366004610a1e565b61073c565b638b78c6d8195433146103e3576382b429006000526004601cfd5b6000805460ff19166001179055565b818160a01b179150610403826107a3565b5050565b600060208201825160051b81015b80821461043357600160ff8351161b83179250602082019150610415565b5050919050565b61044433826107df565b50565b638b78c6d819543314610462576382b429006000526004601cfd5b6104038282610830565b638b78c6d71954638b78c6d81990331461048e576382b429006000526004601cfd5b600060018201553381547f8be0079c531659141344cd1fd0a4f28419497f9722a3daafe3b4186f6b6457e0600080a3339055565b638b78c6d8195433146104dd576382b429006000526004601cfd5b61040382826107df565b638b78c6d819543314610502576382b429006000526004601cfd5b6000638b78c6d7198190557f8422bba0a447c9e0309f7f8ab02fe9cc65654c78bb03841856db33a0536c524c9080a1565b606082901b638b78c6d81760009081526020902054811615156002811080610559579015905b5092915050565b638b78c6d81954331461057b576382b429006000526004601cfd5b6000337f8be0079c531659141344cd1fd0a4f28419497f9722a3daafe3b4186f6b6457e0600080a36000638b78c6d81955565b606060206040510160005b8082526001841660051b820191508360011c935083156105db576001016105b9565b5060405191508060405260208201810360051c825250919050565b818160a01b1791506104038261087c565b80638b78c6d83360601b17600052806020600020541661062f576382b429006000526004601cfd5b50506000805460ff19166001179055565b828260a01b17925061065283826104c2565b505050565b80638b78c6d81954331461062f57638b78c6d83360601b17600052806020600020541661062f576382b429006000526004601cfd5b828260a01b1792506106528382610447565b638b78c6d8195433146106b9576382b429006000526004601cfd5b6001600160a01b0316806106d557637448fbae6000526004601cfd5b638b78c6d719819055807fbddead5759d93d1c80803f9e8dcce528b941a7cdbf365abc5ad97e8743460d17600080a250565b80638b78c6d83360601b17600052806020600020541661062f57638b78c6d81954331461062f576382b429006000526004601cfd5b638b78c6d819543314610757576382b429006000526004601cfd5b6001600160a01b03168061077357637448fbae6000526004601cfd5b80337f8be0079c531659141344cd1fd0a4f28419497f9722a3daafe3b4186f6b6457e0600080a3638b78c6d81955565b6001600160a01b0316638b78c6d8198190558060007f8be0079c531659141344cd1fd0a4f28419497f9722a3daafe3b4186f6b6457e08180a350565b638b78c6d88260601b176000526020600020805482811681189050808255808460601b60601c7f715ad5ce61fc9595c7b415289d59cf203f23a94fa06f04af7e489a0a76e1fe26600080a350505050565b638b78c6d88260601b17600052602060002081815417808255808460601b60601c7f715ad5ce61fc9595c7b415289d59cf203f23a94fa06f04af7e489a0a76e1fe26600080a350505050565b638b78c6d81980546001600160a01b039092169182907f8be0079c531659141344cd1fd0a4f28419497f9722a3daafe3b4186f6b6457e0600080a355565b80356001600160a01b03811681146108d157600080fd5b919050565b600080604083850312156108e957600080fd5b6108f2836108ba565b946020939093013593505050565b7f4e487b7100000000000000000000000000000000000000000000000000000000600052604160045260246000fd5b803560ff811681146108d157600080fd5b6000602080838503121561095357600080fd5b823567ffffffffffffffff8082111561096b57600080fd5b818501915085601f83011261097f57600080fd5b81358181111561099157610991610900565b8060051b604051601f19603f830116810181811085821117156109b6576109b6610900565b6040529182528482019250838101850191888311156109d457600080fd5b938501935b828510156109f9576109ea8561092f565b845293850193928501926109d9565b98975050505050505050565b600060208284031215610a1757600080fd5b5035919050565b600060208284031215610a3057600080fd5b610a39826108ba565b9392505050565b6020808252825182820181905260009190848201906040850190845b81811015610a7b57835160ff1683529284019291840191600101610a5c565b50909695505050505050565b600080600060608486031215610a9c57600080fd5b610aa5846108ba565b9560208501359550604090940135939250505056fea264697066735822122091e004064985f2014fc8d0e2b7a650736c752bf395e53d75f252172692e5ca6d64736f6c634300080f0033",
    "linkReferences": {}
  },
  "methodIdentifiers": {
    "cancelOwnershipHandover()": "54d1f13d",
    "flag()": "890eba68",
    "grantRoles(address,uint256)": "1c10893f",
    "grantRoles(address,uint256,uint256)": "dbdde689",
    "hasAllRoles(address,uint256)": "1cd64df4",
    "hasAnyRole(address,uint256)": "514e62fc",
    "hasAnyRoleWithCheck(address,uint256)": "6610ec24",
    "initializeOwnerDirect(address,uint256)": "122a3c11",
    "ordinalsFromRoles(uint256)": "7359e41f",
    "owner()": "8da5cb5b",
    "ownershipHandoverReceiver()": "51b3cf5e",
    "proposeOwnershipHandover(address)": "e72a48df",
    "receiveOwnershipHandover()": "2b481e11",
    "renounceOwnership()": "715018a6",
    "renounceRoles(uint256)": "183a4f6e",
    "revokeRoles(address,uint256)": "4a4ee7b1",
    "revokeRoles(address,uint256,uint256)": "b082c1b2",
    "rolesFromOrdinals(uint8[])": "13a661ed",
    "rolesOf(address)": "2de94807",
    "setOwnerDirect(address,uint256)": "74102217",
    "transferOwnership(address)": "f2fde38b",
    "updateFlagWithOnlyOwner()": "0db7b832",
    "updateFlagWithOnlyOwnerOrRoles(uint256)": "b5dc55cc",
    "updateFlagWithOnlyRoles(uint256)": "a14dc6bf",
    "updateFlagWithOnlyRolesOrOwner(uint256)": "eb2c793e"
  },
  "id": 52
}