{
  "abi": [
    {
      "inputs": [
        {
          "internalType": "uint256",
          "name": "x",
          "type": "uint256"
        }
      ],
      "name": "popCount",
      "outputs": [
        {
          "internalType": "uint256",
          "name": "c",
          "type": "uint256"
        }
      ],
      "stateMutability": "pure",
      "type": "function"
    }
  ],
  "bytecode": {
    "object": "0x61016061003a600b82828239805160001a60731461002d57634e487b7160e01b600052600060045260246000fd5b30600052607381538281f3fe73000000000000000000000000000000000000000030146080604052600436106100355760003560e01c8063058440b51461003a575b600080fd5b6100ff610048366004610111565b6101007f01010101010101010101010101010101010101010101010101010101010101017f3333333333333333333333333333333333333333333333333333333333333333600184901c7f555555555555555555555555555555555555555555555555555555555555555516840381811660029190911c90911601600481901c017f0f0f0f0f0f0f0f0f0f0f0f0f0f0f0f0f0f0f0f0f0f0f0f0f0f0f0f0f0f0f0f0f160260f81c8118600019909210919091021890565b60405190815260200160405180910390f35b60006020828403121561012357600080fd5b503591905056fea264697066735822122092b3dd7616b8d9063aab9d0d511ff8608cb54642d97aed6ec704b203c4fc6eff64736f6c634300080f0033",
    "linkReferences": {}
  },
  "methodIdentifiers": {
    "popCount(uint256)": "058440b5"
  },
  "id": 17
}