{
  "abi": [
    {
      "inputs": [],
      "stateMutability": "nonpayable",
      "type": "constructor"
    },
    {
      "anonymous": false,
      "inputs": [
        {
          "indexed": true,
          "internalType": "address",
          "name": "owner",
          "type": "address"
        },
        {
          "indexed": true,
          "internalType": "address",
          "name": "spender",
          "type": "address"
        },
        {
          "indexed": false,
          "internalType": "uint256",
          "name": "amount",
          "type": "uint256"
        }
      ],
      "name": "Approval",
      "type": "event"
    },
    {
      "anonymous": false,
      "inputs": [
        {
          "indexed": true,
          "internalType": "address",
          "name": "from",
          "type": "address"
        },
        {
          "indexed": true,
          "internalType": "address",
          "name": "to",
          "type": "address"
        },
        {
          "indexed": false,
          "internalType": "uint256",
          "name": "amount",
          "type": "uint256"
        }
      ],
      "name": "Transfer",
      "type": "event"
    },
    {
      "inputs": [
        {
          "internalType": "address",
          "name": "",
          "type": "address"
        },
        {
          "internalType": "address",
          "name": "",
          "type": "address"
        }
      ],
      "name": "allowance",
      "outputs": [
        {
          "internalType": "uint256",
          "name": "",
          "type": "uint256"
        }
      ],
      "stateMutability": "view",
      "type": "function"
    },
    {
      "inputs": [
        {
          "internalType": "address",
          "name": "spender",
          "type": "address"
        },
        {
          "internalType": "uint256",
          "name": "amount",
          "type": "uint256"
        }
      ],
      "name": "approve",
      "outputs": [],
      "stateMutability": "nonpayable",
      "type": "function"
    },
    {
      "inputs": [
        {
          "internalType": "address",
          "name": "",
          "type": "address"
        }
      ],
      "name": "balanceOf",
      "outputs": [
        {
          "internalType": "uint256",
          "name": "",
          "type": "uint256"
        }
      ],
      "stateMutability": "view",
      "type": "function"
    },
    {
      "inputs": [],
      "name": "decimals",
      "outputs": [
        {
          "internalType": "uint8",
          "name": "",
          "type": "uint8"
        }
      ],
      "stateMutability": "view",
      "type": "function"
    },
    {
      "inputs": [],
      "name": "name",
      "outputs": [
        {
          "internalType": "string",
          "name": "",
          "type": "string"
        }
      ],
      "stateMutability": "view",
      "type": "function"
    },
    {
      "inputs": [
        {
          "internalType": "bytes",
          "name": "_garbage",
          "type": "bytes"
        }
      ],
      "name": "setGarbage",
      "outputs": [],
      "stateMutability": "nonpayable",
      "type": "function"
    },
    {
      "inputs": [],
      "name": "symbol",
      "outputs": [
        {
          "internalType": "string",
          "name": "",
          "type": "string"
        }
      ],
      "stateMutability": "view",
      "type": "function"
    },
    {
      "inputs": [],
      "name": "totalSupply",
      "outputs": [
        {
          "internalType": "uint256",
          "name": "",
          "type": "uint256"
        }
      ],
      "stateMutability": "view",
      "type": "function"
    },
    {
      "inputs": [
        {
          "internalType": "address",
          "name": "to",
          "type": "address"
        },
        {
          "internalType": "uint256",
          "name": "amount",
          "type": "uint256"
        }
      ],
      "name": "transfer",
      "outputs": [],
      "stateMutability": "nonpayable",
      "type": "function"
    },
    {
      "inputs": [
        {
          "internalType": "address",
          "name": "from",
          "type": "address"
        },
        {
          "internalType": "address",
          "name": "to",
          "type": "address"
        },
        {
          "internalType": "uint256",
          "name": "amount",
          "type": "uint256"
        }
      ],
      "name": "transferFrom",
      "outputs": [],
      "stateMutability": "nonpayable",
      "type": "function"
    }
  ],
  "bytecode": {
    "object": "0x608060405234801561001057600080fd5b5060001960008181553381526001602052604090205561080a806100356000396000f3fe608060405234801561001057600080fd5b50600436106100be5760003560e01c8063313ce5671161007657806395d89b411161005b57806395d89b41146101a1578063a9059cbb146101dd578063dd62ed3e146101f057600080fd5b8063313ce5671461016757806370a082311461018157600080fd5b806318160ddd116100a757806318160ddd1461012a57806323b872dd146101415780632abbae0f1461015457600080fd5b806306fdde03146100c3578063095ea7b314610115575b600080fd5b6100ff6040518060400160405280601381526020017f52657475726e7347617262616765546f6b656e0000000000000000000000000081525081565b60405161010c9190610473565b60405180910390f35b6101286101233660046104e4565b61021b565b005b61013360005481565b60405190815260200161010c565b61012861014f36600461050e565b61030e565b610128610162366004610560565b6103ed565b61016f601281565b60405160ff909116815260200161010c565b61013361018f366004610611565b60016020526000908152604090205481565b6100ff6040518060400160405280600381526020017f524754000000000000000000000000000000000000000000000000000000000081525081565b6101286101eb3660046104e4565b6103fd565b6101336101fe366004610633565b600260209081526000928352604080842090915290825290205481565b3360008181526002602090815260408083206001600160a01b03871680855290835292819020859055518481529192917f8c5be1e5ebec7d5bd14f71427d1e84f3dd0314c0f7b2291e5b200ac8c7c3b92591015b60405180910390a360006003805461028690610666565b80601f01602080910402602001604051908101604052809291908181526020018280546102b290610666565b80156102ff5780601f106102d4576101008083540402835291602001916102ff565b820191906000526020600020905b8154815290600101906020018083116102e257829003601f168201915b50505050509050805160208201f35b6001600160a01b0383166000908152600260209081526040808320338452909152902054600019811461036a5761034582826106a0565b6001600160a01b03851660009081526002602090815260408083203384529091529020555b6001600160a01b038416600090815260016020526040812080548492906103929084906106a0565b90915550506001600160a01b03808416600081815260016020526040908190208054860190555190918616907fddf252ad1be2c89b69c2b068fc378daa952ba7f163c4a11628f55a4df523b3ef9061026f9086815260200190565b60036103f98282610714565b5050565b336000908152600160205260408120805483929061041c9084906106a0565b90915550506001600160a01b038216600081815260016020526040908190208054840190555133907fddf252ad1be2c89b69c2b068fc378daa952ba7f163c4a11628f55a4df523b3ef9061026f9085815260200190565b600060208083528351808285015260005b818110156104a057858101830151858201604001528201610484565b818111156104b2576000604083870101525b50601f01601f1916929092016040019392505050565b80356001600160a01b03811681146104df57600080fd5b919050565b600080604083850312156104f757600080fd5b610500836104c8565b946020939093013593505050565b60008060006060848603121561052357600080fd5b61052c846104c8565b925061053a602085016104c8565b9150604084013590509250925092565b634e487b7160e01b600052604160045260246000fd5b60006020828403121561057257600080fd5b813567ffffffffffffffff8082111561058a57600080fd5b818401915084601f83011261059e57600080fd5b8135818111156105b0576105b061054a565b604051601f8201601f19908116603f011681019083821181831017156105d8576105d861054a565b816040528281528760208487010111156105f157600080fd5b826020860160208301376000928101602001929092525095945050505050565b60006020828403121561062357600080fd5b61062c826104c8565b9392505050565b6000806040838503121561064657600080fd5b61064f836104c8565b915061065d602084016104c8565b90509250929050565b600181811c9082168061067a57607f821691505b60208210810361069a57634e487b7160e01b600052602260045260246000fd5b50919050565b6000828210156106c057634e487b7160e01b600052601160045260246000fd5b500390565b601f82111561070f57600081815260208120601f850160051c810160208610156106ec5750805b601f850160051c820191505b8181101561070b578281556001016106f8565b5050505b505050565b815167ffffffffffffffff81111561072e5761072e61054a565b6107428161073c8454610666565b846106c5565b602080601f831160018114610777576000841561075f5750858301515b600019600386901b1c1916600185901b17855561070b565b600085815260208120601f198616915b828110156107a657888601518255948401946001909101908401610787565b50858210156107c45787850151600019600388901b60f8161c191681555b5050505050600190811b0190555056fea26469706673582212207cdc20c0bfcce2e8af3290e9497148ffc8af5036e05d0ba4f99090bfa25b74b764736f6c634300080f0033",
    "linkReferences": {}
  },
  "methodIdentifiers": {
    "allowance(address,address)": "dd62ed3e",
    "approve(address,uint256)": "095ea7b3",
    "balanceOf(address)": "70a08231",
    "decimals()": "313ce567",
    "name()": "06fdde03",
    "setGarbage(bytes)": "2abbae0f",
    "symbol()": "95d89b41",
    "totalSupply()": "18160ddd",
    "transfer(address,uint256)": "a9059cbb",
    "transferFrom(address,address,uint256)": "23b872dd"
  },
  "id": 55
}