{
  "abi": [
    {
      "inputs": [],
      "name": "CONTRACT",
      "outputs": [
        {
          "internalType": "address",
          "name": "",
          "type": "address"
        }
      ],
      "stateMutability": "view",
      "type": "function"
    },
    {
      "inputs": [],
      "name": "WEBSITE",
      "outputs": [
        {
          "internalType": "string",
          "name": "",
          "type": "string"
        }
      ],
      "stateMutability": "view",
      "type": "function"
    }
  ],
  "bytecode": {
    "object": "0x61016261003a600b82828239805160001a60731461002d57634e487b7160e01b600052600060045260246000fd5b30600052607381538281f3fe73000000000000000000000000000000000000000030146080604052600436106100405760003560e01c8063283dc96f14610045578063fc833ac614610097575b600080fd5b6100816040518060400160405280601781526020017f68747470733a2f2f6d696c6164796d616b65722e6e657400000000000000000081525081565b60405161008e91906100d7565b60405180910390f35b6100b2735af0d9827e0c53e4799bb226655a1de152a425a581565b60405173ffffffffffffffffffffffffffffffffffffffff909116815260200161008e565b600060208083528351808285015260005b81811015610104578581018301518582016040015282016100e8565b81811115610116576000604083870101525b50601f01601f191692909201604001939250505056fea26469706673582212205cc6903d93b20990e5c440d3048d2030555e0d504da2dfc0a530d38f20f6ef8b64736f6c634300080f0033",
    "linkReferences": {}
  },
  "methodIdentifiers": {
    "CONTRACT()": "fc833ac6",
    "WEBSITE()": "283dc96f"
  },
  "id": 10
}