{
  "abi": [
    {
      "anonymous": false,
      "inputs": [
        {
          "indexed": true,
          "internalType": "address",
          "name": "user",
          "type": "address"
        },
        {
          "indexed": true,
          "internalType": "contract Authority",
          "name": "newAuthority",
          "type": "address"
        }
      ],
      "name": "AuthorityUpdated",
      "type": "event"
    },
    {
      "anonymous": false,
      "inputs": [
        {
          "indexed": true,
          "internalType": "address",
          "name": "user",
          "type": "address"
        },
        {
          "indexed": true,
          "internalType": "address",
          "name": "newOwner",
          "type": "address"
        }
      ],
      "name": "OwnerUpdated",
      "type": "event"
    },
    {
      "inputs": [],
      "name": "authority",
      "outputs": [
        {
          "internalType": "contract Authority",
          "name": "",
          "type": "address"
        }
      ],
      "stateMutability": "view",
      "type": "function"
    },
    {
      "inputs": [],
      "name": "flag",
      "outputs": [
        {
          "internalType": "bool",
          "name": "",
          "type": "bool"
        }
      ],
      "stateMutability": "view",
      "type": "function"
    },
    {
      "inputs": [],
      "name": "owner",
      "outputs": [
        {
          "internalType": "address",
          "name": "",
          "type": "address"
        }
      ],
      "stateMutability": "view",
      "type": "function"
    },
    {
      "inputs": [
        {
          "internalType": "contract Authority",
          "name": "newAuthority",
          "type": "address"
        }
      ],
      "name": "setAuthority",
      "outputs": [],
      "stateMutability": "nonpayable",
      "type": "function"
    },
    {
      "inputs": [
        {
          "internalType": "address",
          "name": "newOwner",
          "type": "address"
        }
      ],
      "name": "setOwner",
      "outputs": [],
      "stateMutability": "nonpayable",
      "type": "function"
    },
    {
      "inputs": [],
      "name": "updateFlag",
      "outputs": [],
      "stateMutability": "nonpayable",
      "type": "function"
    }
  ],
  "bytecode": {
    "object": "0x608060405234801561001057600080fd5b5060008054336001600160a01b03199182168117835560018054909216909155604051909190829081907f8292fce18fa69edf4db7b94ea2e58241df0ae57f97e0a6c9b29067028bf92d76908490a36040516001600160a01b0382169033907fa3396fd7f6e0a21b50e5089d2da70d5ac0a3bbbd1f617a93f134b7638998019890600090a35050610484806100a66000396000f3fe608060405234801561001057600080fd5b50600436106100725760003560e01c8063890eba6811610050578063890eba68146100a75780638da5cb5b146100d0578063bf7e214f146100fb57600080fd5b806313af4035146100775780633a7104d11461008c5780637a9e5e4b14610094575b600080fd5b61008a610085366004610408565b61010e565b005b61008a6101bc565b61008a6100a2366004610408565b61023d565b6001546100bb90600160a01b900460ff1681565b60405190151581526020015b60405180910390f35b6000546100e3906001600160a01b031681565b6040516001600160a01b0390911681526020016100c7565b6001546100e3906001600160a01b031681565b610124336000356001600160e01b031916610337565b6101645760405162461bcd60e51b815260206004820152600c60248201526b15539055551213d49256915160a21b60448201526064015b60405180910390fd5b6000805473ffffffffffffffffffffffffffffffffffffffff19166001600160a01b0383169081178255604051909133917f8292fce18fa69edf4db7b94ea2e58241df0ae57f97e0a6c9b29067028bf92d769190a350565b6101d2336000356001600160e01b031916610337565b61020d5760405162461bcd60e51b815260206004820152600c60248201526b15539055551213d49256915160a21b604482015260640161015b565b600180547fffffffffffffffffffffff00ffffffffffffffffffffffffffffffffffffffff16600160a01b179055565b6000546001600160a01b03163314806102d5575060015460405163b700961360e01b81523360048201523060248201526000356001600160e01b03191660448201526001600160a01b039091169063b700961390606401602060405180830381865afa1580156102b1573d6000803e3d6000fd5b505050506040513d601f19601f820116820180604052508101906102d5919061042c565b6102de57600080fd5b6001805473ffffffffffffffffffffffffffffffffffffffff19166001600160a01b03831690811790915560405133907fa3396fd7f6e0a21b50e5089d2da70d5ac0a3bbbd1f617a93f134b7638998019890600090a350565b6001546000906001600160a01b031680158015906103d0575060405163b700961360e01b81526001600160a01b0385811660048301523060248301526001600160e01b03198516604483015282169063b700961390606401602060405180830381865afa1580156103ac573d6000803e3d6000fd5b505050506040513d601f19601f820116820180604052508101906103d0919061042c565b806103e857506000546001600160a01b038581169116145b949350505050565b6001600160a01b038116811461040557600080fd5b50565b60006020828403121561041a57600080fd5b8135610425816103f0565b9392505050565b60006020828403121561043e57600080fd5b8151801515811461042557600080fdfea2646970667358221220992c40966b5cc7f44d12f1df0502b5024045652c42fdb26749fbd072db4b42ba64736f6c634300080f0033",
    "linkReferences": {}
  },
  "methodIdentifiers": {
    "authority()": "bf7e214f",
    "flag()": "890eba68",
    "owner()": "8da5cb5b",
    "setAuthority(address)": "7a9e5e4b",
    "setOwner(address)": "13af4035",
    "updateFlag()": "3a7104d1"
  },
  "id": 47
}