{
  "abi": [
    {
      "inputs": [],
      "name": "CustomError",
      "type": "error"
    },
    {
      "inputs": [
        {
          "internalType": "bytes[]",
          "name": "data",
          "type": "bytes[]"
        }
      ],
      "name": "multicall",
      "outputs": [
        {
          "internalType": "bytes[]",
          "name": "results",
          "type": "bytes[]"
        }
      ],
      "stateMutability": "payable",
      "type": "function"
    },
    {
      "inputs": [
        {
          "internalType": "bytes[]",
          "name": "data",
          "type": "bytes[]"
        }
      ],
      "name": "multicallOriginal",
      "outputs": [
        {
          "internalType": "bytes[]",
          "name": "results",
          "type": "bytes[]"
        }
      ],
      "stateMutability": "payable",
      "type": "function"
    },
    {
      "inputs": [],
      "name": "paid",
      "outputs": [
        {
          "internalType": "uint256",
          "name": "",
          "type": "uint256"
        }
      ],
      "stateMutability": "view",
      "type": "function"
    },
    {
      "inputs": [],
      "name": "pay",
      "outputs": [],
      "stateMutability": "payable",
      "type": "function"
    },
    {
      "inputs": [],
      "name": "returnsSender",
      "outputs": [
        {
          "internalType": "address",
          "name": "",
          "type": "address"
        }
      ],
      "stateMutability": "view",
      "type": "function"
    },
    {
      "inputs": [
        {
          "internalType": "string",
          "name": "s",
          "type": "string"
        }
      ],
      "name": "returnsString",
      "outputs": [
        {
          "internalType": "string",
          "name": "",
          "type": "string"
        }
      ],
      "stateMutability": "pure",
      "type": "function"
    },
    {
      "inputs": [
        {
          "internalType": "uint256",
          "name": "a",
          "type": "uint256"
        },
        {
          "internalType": "uint256",
          "name": "b",
          "type": "uint256"
        }
      ],
      "name": "returnsTuple",
      "outputs": [
        {
          "components": [
            {
              "internalType": "uint256",
              "name": "a",
              "type": "uint256"
            },
            {
              "internalType": "uint256",
              "name": "b",
              "type": "uint256"
            }
          ],
          "internalType": "struct MockMulticallable.Tuple",
          "name": "tuple",
          "type": "tuple"
        }
      ],
      "stateMutability": "pure",
      "type": "function"
    },
    {
      "inputs": [],
      "name": "revertsWithCustomError",
      "outputs": [],
      "stateMutability": "pure",
      "type": "function"
    },
    {
      "inputs": [],
      "name": "revertsWithNothing",
      "outputs": [],
      "stateMutability": "pure",
      "type": "function"
    },
    {
      "inputs": [
        {
          "internalType": "string",
          "name": "e",
          "type": "string"
        }
      ],
      "name": "revertsWithString",
      "outputs": [],
      "stateMutability": "pure",
      "type": "function"
    }
  ],
  "bytecode": {
    "object": "0x608060405234801561001057600080fd5b5061088b806100206000396000f3fe6080604052600436106100b15760003560e01c8063295b4e171161006957806392a49cb11161004e57806392a49cb1146101d1578063ac9650d8146101e6578063c7f554d8146101f957600080fd5b8063295b4e171461018d578063468e8f31146101b157600080fd5b806310d990cb1161009a57806310d990cb146100fa5780631b9265b81461012757806325793ff71461013157600080fd5b806304420e96146100b65780630fbbaefb146100df575b600080fd5b6100c96100c4366004610486565b61020e565b6040516100d69190610557565b60405180910390f35b3480156100eb57600080fd5b506040513381526020016100d6565b34801561010657600080fd5b5061011a6101153660046105b9565b610364565b6040516100d69190610619565b61012f6103a6565b005b34801561013d57600080fd5b5061017261014c366004610633565b604080518082018252600080825260209182015281518083019092529281529182015290565b604080518251815260209283015192810192909252016100d6565b34801561019957600080fd5b506101a360005481565b6040519081526020016100d6565b3480156101bd57600080fd5b5061012f6101cc3660046106c4565b6103be565b3480156101dd57600080fd5b5061012f600080fd5b6100c96101f4366004610486565b6103d8565b34801561020557600080fd5b5061012f610454565b60608167ffffffffffffffff81111561022957610229610655565b60405190808252806020026020018201604052801561025c57816020015b60608152602001906001900390816102475790505b50905060005b8281101561035d576000803086868581811061028057610280610744565b9050602002810190610292919061075a565b6040516102a09291906107a8565b600060405180830381855af49150503d80600081146102db576040519150601f19603f3d011682016040523d82523d6000602084013e6102e0565b606091505b509150915081610335576044815110156102f957600080fd5b6004810190508080602001905181019061031391906107b8565b60405162461bcd60e51b815260040161032c9190610619565b60405180910390fd5b8084848151811061034857610348610744565b60209081029190910101525050600101610262565b5092915050565b606082828080601f0160208091040260200160405190810160405280939291908181526020018383808284376000920191909152509293505050505b92915050565b346000808282546103b7919061082f565b9091555050565b8060405162461bcd60e51b815260040161032c9190610619565b606081156103a05750604051818152602001600582901b808483378101805b825185018035602082018337600080823584305af461041a573d6000803e3d6000fd5b508083526020830192503d81523d6000602083013e3d01603f0167ffffffffffffffe0168183106103f75760408051919052949350505050565b6040517f09caebf300000000000000000000000000000000000000000000000000000000815260040160405180910390fd5b6000806020838503121561049957600080fd5b823567ffffffffffffffff808211156104b157600080fd5b818501915085601f8301126104c557600080fd5b8135818111156104d457600080fd5b8660208260051b85010111156104e957600080fd5b60209290920196919550909350505050565b60005b838110156105165781810151838201526020016104fe565b83811115610525576000848401525b50505050565b600081518084526105438160208601602086016104fb565b601f01601f19169290920160200192915050565b6000602080830181845280855180835260408601915060408160051b870101925083870160005b828110156105ac57603f1988860301845261059a85835161052b565b9450928501929085019060010161057e565b5092979650505050505050565b600080602083850312156105cc57600080fd5b823567ffffffffffffffff808211156105e457600080fd5b818501915085601f8301126105f857600080fd5b81358181111561060757600080fd5b8660208285010111156104e957600080fd5b60208152600061062c602083018461052b565b9392505050565b6000806040838503121561064657600080fd5b50508035926020909101359150565b634e487b7160e01b600052604160045260246000fd5b604051601f8201601f1916810167ffffffffffffffff8111828210171561069457610694610655565b604052919050565b600067ffffffffffffffff8211156106b6576106b6610655565b50601f01601f191660200190565b6000602082840312156106d657600080fd5b813567ffffffffffffffff8111156106ed57600080fd5b8201601f810184136106fe57600080fd5b803561071161070c8261069c565b61066b565b81815285602083850101111561072657600080fd5b81602084016020830137600091810160200191909152949350505050565b634e487b7160e01b600052603260045260246000fd5b6000808335601e1984360301811261077157600080fd5b83018035915067ffffffffffffffff82111561078c57600080fd5b6020019150368190038213156107a157600080fd5b9250929050565b8183823760009101908152919050565b6000602082840312156107ca57600080fd5b815167ffffffffffffffff8111156107e157600080fd5b8201601f810184136107f257600080fd5b805161080061070c8261069c565b81815285602083850101111561081557600080fd5b6108268260208301602086016104fb565b95945050505050565b6000821982111561085057634e487b7160e01b600052601160045260246000fd5b50019056fea2646970667358221220adb992e471ade9a853701c1d226c3125ada08d61034ed81d980f53449f1502c564736f6c634300080f0033",
    "linkReferences": {}
  },
  "methodIdentifiers": {
    "multicall(bytes[])": "ac9650d8",
    "multicallOriginal(bytes[])": "04420e96",
    "paid()": "295b4e17",
    "pay()": "1b9265b8",
    "returnsSender()": "0fbbaefb",
    "returnsString(string)": "10d990cb",
    "returnsTuple(uint256,uint256)": "25793ff7",
    "revertsWithCustomError()": "c7f554d8",
    "revertsWithNothing()": "92a49cb1",
    "revertsWithString(string)": "468e8f31"
  },
  "id": 51
}